:100000000C942A000C9434000C9434000C943400AA
:100010000C9434000C9434000C9434000C94340090
:100020000C9434000C9434000C9434000C94340080
:100030000C9434000C9434000C9434000C94340070
:100040000C9434000C9434000C9434000C94340060
:100050000C94340011241FBECFE5D8E0DEBFCDBF25
:100060000E9436000C9464000C940000CF93DF9340
:100070001F92CDB7DEB781B3806181BB81B38E7F24
:1000800081BB82B38E7F82BB1982809B14C0898121
:10009000811111C082B3806182BB2FEF84E39CE0A9
:1000A000215080409040E1F700C0000082B38F7E75
:1000B00082BB81E08983809B19828FE39CE9019751
:0C00C000F1F700C00000E1CFF894FFCF82
:00000001FF
