:020000040800F2
:100000000C10002009040008B9040008B904000815
:10001000B9040008B9040008B904000880B400AFAE
:1000200041F20C03C2F2000340F2B102C0F600023A
:100030001A60BD4680BC704780B400AF41F20C032B
:10004000C2F2000340F2F502C0F600021A60BD469B
:1000500080BC704780B500AF41F21003C2F20003CC
:100060004FF002021A7000F0B1F840F60C03C4F22F
:10007000010340F60C02C4F20102126842F400527D
:100080001A6041F20C03C2F2000340F29902C0F67A
:1000900000021A6080BD00BF80B400AF41F21003BF
:1000A000C2F200034FF003021A70BD4680BC7047D5
:1000B00080B400AF41F21003C2F200034FF001021E
:1000C0001A7040F60C03C4F2010340F60C02C4F2AD
:1000D0000102126822F400521A6041F20C03C2F2CB
:1000E000000340F29902C0F600021A60BD4680BCCF
:1000F000704700BF80B400AF41F21003C2F20003AA
:100100004FF000021A7040F60C03C4F2010340F6EF
:100110000C02C4F20102126842F400521A6041F269
:100120000C03C2F2000340F29902C0F600021A600A
:10013000BD4680BC704700BF80B400AF41F21403DD
:10014000C2F2000340F26D12C0F600021A60BD4612
:1001500080BC704780B500AF41F21803C2F20003C3
:100160004FF000021A70FFF767FF80BD80B500AF47
:1001700041F21803C2F200034FF001021A70FFF7B8
:100180004DFF40F20003C2F200031B68184600F066
:100190000BF841F21403C2F2000340F25512C0F60C
:1001A00000021A6080BD00BF80B483B000AF7860E9
:1001B00003E07B6803F1FF337B607B68002BF8D1A1
:1001C00007F10C07BD4680BC704700BF80B400AF8C
:1001D00041F21803C4F2020341F21802C4F202020F
:1001E000126842F004021A604FF40063C4F2010383
:1001F0004FF40062C4F20102126822F470021A6025
:100200004FF40063C4F201034FF40062C4F2010230
:1002100012681A6040F60403C4F2010340F60402B7
:10022000C4F20102126822F470021A6040F604035C
:10023000C4F2010340F60402C4F20102126842F063
:1002400022321A60BD4680BC704700BF80B500AF47
:10025000FFF700FF00F076F841F21403C2F200034A
:1002600040F25512C0F600021A6041F22003C2F2B9
:10027000000340F2ED22C0F600021A6080BD00BF0C
:1002800080B500AFFFF7E2FF41F22803C2F200039E
:100290001B68984741F22003C2F200031B6898478D
:1002A00041F21403C2F200031B68984741F20C03A9
:1002B000C2F200031B689847E6E700BF80B483B032
:1002C00000AF786041F21C03C2F200037A681A6042
:1002D00041F22003C2F2000340F2ED22C0F6000218
:1002E0001A6007F10C07BD4680BC704780B500AFAF
:1002F00041F21903C2F200034FF000021A7041F2FA
:100300001C03C2F200031A6840F20403C2F20003A5
:100310001B689A420BD9FFF70FFF41F22003C2F28C
:10032000000340F2ED22C0F600021A6008E041F23C
:100330002003C2F2000340F2ED22C0F600021A6070
:1003400080BD00BF80B500AF41F21A03C2F20003C6
:100350004FF000021A70FFF739FF41F22803C2F292
:10036000000340F27132C0F600021A6080BD00BF87
:1003700080B500AF41F21A03C2F200034FF0010250
:100380001A7000F035F803461A4641F22403C2F20F
:1003900000031A6041F22403C2F200031B681846EE
:1003A000FFF78CFF41F22803C2F2000340F2B9329A
:1003B000C0F600021A6080BD80B500AF41F21A039A
:1003C000C2F200034FF002021A7040F20803C2F2B8
:1003D00000031B681846FFF7E7FE41F22803C2F24C
:1003E000000340F27132C0F600021A6080BD00BF07
:1003F00080B400AF40F60803C4F201031B68DBB20F
:100400001846BD4680BC704780B586B000AF40F24C
:100410000C02C2F2000240F20003C2F20003D31A3F
:10042000BB6040F2C443C0F600033B6140F20003EE
:10043000C2F20003FB604FF000037B610FE03B69F9
:100440001A78FB681A70FB6803F10103FB603B69D3
:1004500003F101033B617B6903F101037B617A696D
:10046000BB689A42EBD340F20C02C2F2000240F2A7
:100470000C03C2F20003D31A7B6040F20C03C2F2F9
:100480000003FB604FF000037B610BE0FB684FF063
:1004900000021A70FB6803F10103FB607B6903F142
:1004A00001037B617A697B689A42EFD3FFF7E8FE2C
:1004B00007F11807BD4680BD80B500AFFFF7A4FF68
:0404C00080BD00BF3C
:0C04C400C02709001400000060EA0000DE
:0400000508000000EF
:00000001FF
