:100000000C942A000C9434000C9434000C943400AA
:100010000C9434000C9434000C9434000C94340090
:100020000C9434000C9434000C9434000C94340080
:100030000C9434000C9434000C9434000C94340070
:100040000C9434000C9434000C9434000C94340060
:100050000C94340011241FBECFE5D8E0DEBFCDBF25
:100060000E9436000C9477000C940000CF93DF932D
:1000700000D0CDB7DEB78FEF8ABB19821A828A8192
:10008000882389F0298181E090E002C0880F991FC0
:100090002A95E2F7809590959BB389238BBB898144
:1000A000815089830EC0298181E090E002C0880FD1
:1000B000991F2A95E2F79BB3892B8BBB89818F5FB0
:1000C00089838981883021F481E08A8387E089836C
:1000D00089818F3F11F41A8219822FEF81EE94E00B
:1000E000215080409040E1F700C00000C8CFF89454
:0200F000FFCF40
:00000001FF
