:100000000C942A000C9473000C948F000C94AB0099
:100010000C9434000C9434000C9434000C94340090
:100020000C9434000C9434000C9434000C94340080
:100030000C9434000C9434000C9434000C94340070
:100040000C9434000C9434000C9434000C94340060
:100050000C94340011241FBECFE5D8E0DEBFCDBF25
:100060000E945C000C94C7000C9400008BB7806861
:100070008BBF8BB780648BBF8BB780628BBF85B71C
:10008000816085BF85B78D7F85BF85B7846085BF5B
:1000900085B7886085BF84B78F7B84BF8FB7806842
:1000A0008FBF089581B3806881BB81B3806481BBB9
:1000B00081B3806281BB08950E9436000E94520085
:1000C00082B38F7D82BB82B38F7B82BB82B38F77FB
:1000D00082BB2FEF84E39CE0215080409040E1F709
:1000E00000C00000EDCF1F920F920FB60F921124A7
:1000F0002F938F939F9382B3806282BB2FEF84E311
:100100009CE0215080409040E1F700C000009F91AA
:100110008F912F910F900FBE0F901F9018951F92E7
:100120000F920FB60F9211242F938F939F9382B348
:10013000806482BB2FEF84E39CE02150804090409C
:10014000E1F700C000009F918F912F910F900FBE9B
:100150000F901F9018951F920F920FB60F921124B7
:100160002F938F939F9382B3806882BB2FEF84E39A
:100170009CE0215080409040E1F700C000009F913A
:100180008F912F910F900FBE0F901F901895F8949C
:02019000FFCF9F
:00000001FF
